:020000040800F2
:10000000709A012471030008A94C0008853C00087F
:100010000D4A0008230900081F65000800000000C1
:10002000000000000000000000000000B102000815
:10003000C90B0008000000000D0300085953000818
:100040008F0300088F0300088F0300088F03000848
:100050008F0300088F0300088F0300088F03000838
:100060008F0300088F0300088F0300088F03000828
:100070008F0300088F0300088F0300088F03000818
:100080008F0300088F0300088F0300088F03000808
:100090008F0300088F0300088F0300088F030008F8
:1000A0008F0300088F0300088F0300088F030008E8
:1000B0008F0300088F0300088F0300088F030008D8
:1000C0008F0300088F0300088F0300088F030008C8
:1000D0008F0300088F0300088F0300088F030008B8
:1000E0008F0300088F030008000000008F03000842
:1000F0008F0300088F0300088F0300088F03000898
:100100008F0300088F0300088F0300088F03000887
:100110008F0300088F030008155500088F0300089F
:100120008F0300088F0300088F0300088F03000867
:100130008F0300088F0300088F0300088F03000857
:1001400000000000000000000000000000000000AF
:100150008F0300088F0300088F0300088F03000837
:100160008F0300088F0300088F0300088F03000827
:100170008F0300088F0300088F0300088F03000817
:100180008F0300088F0300088F0300088F03000807
:100190008F0300088F0300088F0300088F030008F7
:1001A0008F0300088F0300088F0300088F030008E7
:1001B0008F0300088F0300088F0300088F030008D7
:1001C0008F0300088F0300088F0300088F030008C7
:1001D0008F0300088F0300088F0300088F030008B7
:1001E0008F0300088F0300088F0300088F030008A7
:1001F0008F0300088F0300088F0300088F03000897
:100200008F0300088F0300088F0300088F03000886
:100210008F0300088F0300088F0300088F03000876
:100220008F0300088F0300088F0300080000000000
:100230008F0300088F030008000000008F030008F0
:100240008F0300088F0300088F0300088F03000846
:100250008F0300088F0300088F0300088F03000836
:100260008F0300088F0300088F0300088F03000826
:100270008F0300088F0300088F03000800000000B0
:100280008F0300088F0300088F03000800000000A0
:10029000000000008F030008DFF810D000F0C0FA63
:1002A00000480047D5800008AFF30080709A012411
:1002B0002C4B19680868B0E8F04F80F30988BFF349
:1002C0006F8F4FF0000080F311887047000000002E
:1002D00008480068006880F308884FF0000080F349
:1002E000148862B661B6BFF34F8FBFF36F8F00DF24
:1002F00000BF00BF08ED00E0DFF80C00016841F42A
:1003000070010160704700BF88ED00E0EFF30980E5
:10031000BFF36F8F134B1A681EF0100F08BF20ED4C
:10032000108A20E9F04F106009B44FF0500080F3BC
:100330001188BFF34F8FBFF36F8F09F0BBF94FF0F8
:10034000000080F3118809BC19680868B0E8F04F14
:100350001EF0100F08BFB0EC108A80F30988BFF3BD
:100360006F8F70479C000024EFF3058070470000FA
:10037000074880470748804707480047FEE7FEE7F1
:10038000FEE7FEE7FEE7FEE7FEE7FEE7FEE7FEE745
:10039000D10B00081D540008990200082DE9F05FF8
:1003A0000546002092469B468846064681464024E4
:1003B0001BE0284641464746224600F069F853466E
:1003C0005A46C01A914110D311461846224600F0F1
:1003D00050F82D1A67EB01084F46224601200021F4
:1003E00000F047F817EB00094E41201EA4F101046C
:1003F000DFDC484631462A464346BDE8F09F40EAE6
:1004000001039B0703D009E008C9121F08C0042A92
:10041000FAD203E011F8013B00F8013B521EF9D279
:100420007047D2B201E000F8012B491EFBD27047A1
:100430000022F6E710B513460A4604461946FFF7B0
:10044000F0FF204610BD30B50B46014600202022AB
:10045000012409E021FA02F59D4205D303FA02F5D1
:10046000491B04FA02F52844151EA2F10102F1DC31
:1004700030BD202A04DB203A00FA02F10020704748
:100480009140C2F1200320FA03F3194390407047D2
:10049000202A04DB203A21FA02F00021704721FAD9
:1004A00002F3D040C2F12002914008431946704740
:1004B0002DE9FE4F804681EA0300C00F0C460090F4
:1004C00021F0004123F00045B8EB0200A94105D21C
:1004D0004046214690461C460B46024623F000400B
:1004E000104347D0270DC7F30A00C3F30A51029007
:1004F000401A019040286BDAC3F3130040F4801BCC
:100500000098924620B10023D2EB030A63EB0B0B59
:1005100001985946C0F140025046FFF7AAFF06462F
:100520000D4650465946019A00F08CF910EB080030
:100530006141002487EA115284EAE7731A4340D0EC
:10054000009A62B3019A012A4FEA075215DC001B98
:1005500061EB02014FF0004202EA0752CDE900428E
:10056000001C41F5801132462B4600F08CF903B097
:10057000BDE8F08F40462146F9E7001B61EB020120
:10058000001C41F5801300185B412018A2F50017EC
:1005900047EB030140EAD570B6196D4111E06D08D3
:1005A0004FEA360645EAC0754FEA0752001B61EB79
:1005B0000201001C41F5801149084FEA3000001982
:1005C000514132462B4603B0BDE8F04F00F04CB924
:1005D0000098012240000023D0EB020263EBE0739D
:1005E000009821464FEAE074B8EB000061EB04018B
:1005F000E9E783F000435BE781F0004158E72DE92C
:10060000FE4F81EA030404F0004421F0004100940D
:100610004FF0000B23F0004350EA01045ED052EA91
:1006200003045BD0C3F30A54C1F30A552C44A4F26B
:10063000F3340194A0FB0254C1F3130141F480117F
:10064000C3F3130343F4801301FB024400FB034E86
:10065000840A970A44EA815447EA8357A4FB07684F
:1006600002958D0A05FB07854FEA932C04FB0C5479
:100670002705029D4FEA065847EA1637B5EB0805ED
:100680006EEB070C870E920E47EA811742EA83123F
:10069000A7FB0201B6EB0B0164EB00042B0D43EA50
:1006A0000C335E1844EB1C50DA465146E7FB02015E
:1006B000C5F313044FEA0B3343EA14534FEA0432F1
:1006C000019C43EA0603A4F10C040294009CCDE9CA
:1006D00000B400F0D8F803B0BDE8F08F0020014668
:1006E000F9E72DE9F04D81EA030404F0004B21F015
:1006F000004514464FF0000A23F0004150EA05027D
:1007000020D054EA01021DD0C5F30A570246C5F3B2
:100710001303C1F31300C1F30A5640F4801543F4E8
:100720008013A7EB0608101BD64608F2FD3873EBC2
:10073000050002D308F1010801E092185B41B8F10D
:10074000000F03DA00200146BDE8F08D00204FF4D1
:100750008011064684460EE0171B73EB050705D390
:10076000121B63EB050306434CEA010C49084FEAF0
:10077000300092185B4150EA0107EDD152EA0300C4
:1007800012D082EA040083EA0501084305D0101B59
:10079000AB4106D20122002306E000224FF00043C5
:1007A00002E06FF0010253101AEB06004CEB085107
:1007B00010EB0A0041EB0B01BDE8F04D00F054B81E
:1007C000C1F30A52C1F3130140F2FF3341F4801127
:1007D0009A4202DA00200146704740F233439A42BF
:1007E000A2F2334202DC5242FFF752BEFFF741BE93
:1007F00030B5041E71F1000404DB4FF000444042A8
:1008000064EB0101141E73F1000405DB1C464FF07C
:100810000043524263EB0403994208BF904230BD4B
:10082000064C074D06E0E06840F0010394E807003D
:1008300098471034AC42F6D3FFF732FD74A5000898
:1008400094A50008202A06DBCB17203A41FA02F0D3
:1008500043EAE07306E041FA02F3D040C2F120021D
:10086000914008431946704710B5141E73F10004F7
:1008700008DA401C41F1000192185B411A4301D192
:1008800020F0010010BD2DE9F04D92469B4611B1BC
:10089000B1FA81F202E0B0FA80F220329046FFF71E
:1008A000E8FD04460F4640EA0A0041EA0B015346C0
:1008B0005A46084313D0114653EA010019D0C8F133
:1008C00040025046FFF7E4FD05460E4650465946A5
:1008D0004246FFF7CEFD084305D0012004E0204644
:1008E0003946BDE8F08D0020054346EAE0762C430A
:1008F00037430A986305E40AA0EB08000022FD0ACA
:1009000044EA47540A3002D500200146E9E70105D0
:1009100010196941DDE9084500196941BDE8F04D4C
:10092000A2E7FEE710B50F4C01202DED028B60759C
:10093000002005F01BFE0120B0EE408A05F016FEF7
:10094000F0EE400A084838EE200AF6EE000A20EEE3
:10095000200A84ED000A90ED000A84ED010ABDEC46
:10096000028B10BD240100246C0000240C489FED74
:100970000D0A017DF0EE400A79B9DFED0B1A90ED1A
:10098000030ADFED0A0A90ED021A20EE210A60EE5A
:10099000200A31EE600A71EE200A05F0F3BD000076
:1009A00024010024000000000080844235FA8E3CBF
:1009B0001448DFED151A154990ED041A00EE201ABF
:1009C00080ED041AB5EEC01AF1EE10FA08D231EE3D
:1009D000210A80ED040AB1F87820521EA1F878208F
:1009E00090ED040A0A4B10EE102A9A4208DB30EE12
:1009F000610A80ED040AB1F87800401CA1F8780083
:100A000070470000240100240000B4436401002466
:100A10000000B44370B53A4C01253A4E2DED028BDF
:100A200020789FED398A022850D003284ED0042820
:100A300036D136489FED361AD4ED1F1A90ED040AD0
:100A4000B4F97800334900EE900AF8EEE00A00EEBF
:100A5000810A30EE610A84ED0E0AD4ED0D0A30EE03
:100A6000600AB0EEC00A10EE100A884209DAB0EE51
:100A7000480A84F88450B0EE401AF0EE400A04F0C0
:100A8000B5FBD4ED0E0A94ED0D1A94ED200A70EE2C
:100A9000C10AF0EEE00AF4EEC00AF1EE10FA12D349
:100AA000BDEC028B70BD00BF94ED020AD4ED010ACB
:100AB00094ED1C1A30EE600AB0EEC00AB4EEC10A22
:100AC000F1EE10FAECD284F88550E9E706F060FF09
:100AD00094ED020AD4ED010A30EE600AB0EEC00ACD
:100AE00010EE100AB042DFDCB0EE480A84F8845001
:100AF000B0EE401AF0EE400A04F078FBD4E70000B4
:100B000064010024000020410000000024010024B2
:100B10000000B4430000404010B5274C21462DEDA5
:100B2000028B01F10C0022789FED248A91ED020ADC
:100B3000D1ED010A022A08D0032A0FD0042A20D0BE
:100B4000B0EE480AF0EE400A2FE004F0F1F8D4EDE0
:100B50001B0A30EE200AF0EE480A26E004F0E8F81E
:100B600094ED1B2AD4ED191AD4ED1A0A30EE020ABC
:100B70009FED131A61EE801A81EEA02A62EE010A3F
:100B800013E00D48D4ED0D0A3C3094ED0E0A04F04C
:100B9000CFF8F0EE400ADFED0B1AB0EEE01A94ED5C
:100BA0001D0A21EE211A21EE000ABDEC028BBDE8E0
:100BB000104004F0C9BA00006401002400000000E5
:100BC000E12E654235FA8E3C704772B6FEE70000B2
:100BD000054805490839026842F0020202600868C7
:100BE0008004FCD5704700000C48025870B50446DC
:100BF00000F038F90546601C02D00448007804442F
:100C000000F030F9401BA042FAD370BD88000024E8
:100C10002DE9F84F03247D4D00234FF001094FF0DB
:100C2000B04B4FF00F0AE9E009FA03F73A4076D0EB
:100C30000E7906F00306012E01D0022E18D1D0F84D
:100C400008C04FEA430ECE6804FA0EF82CEA080CEE
:100C500006FA0EF646EA0C068660D0F804C00E7955
:100C60002CEA070CC6F300169E4046EA0C064660C6
:100C70000E79F643B6070BD0C6684FEA43088F6873
:100C800004FA08FC26EA0C0607FA08F73743C7609F
:100C90000E7906F00306022E12D1DE080F694FEA24
:100CA000437C00EB8606B646366A4FEADC6C0AFAED
:100CB0000CF807FA0CF726EA08063743CEF820703E
:100CC0000F7906684FEA430807F0030704FA08FCA7
:100CD00007FA08F726EA0C06374307604E6816F451
:100CE000403F1CD04A4E376847F0020737603668ED
:100CF0009F0706F00206009623F0030606F1B046B1
:100D0000B6463F0FD6F80864DFF808810AFA07FCF8
:100D1000404526EA0C0603D14FF0000C41E06CE0A0
:100D2000DFF8F4C0604502D14FF0010C39E0DFF884
:100D3000ECC0604502D14FF0020C32E0DFF8E0C0B9
:100D4000604502D14FF0030C2BE0DFF8D8C06045BE
:100D500002D14FF0040C24E0DFF8CCC0604502D192
:100D60004FF0050C1DE0DFF8C4C0604502D14FF024
:100D7000060C16E0DFF8B8C0604502D14FF0070C52
:100D80000FE0DFF8B0C0604502D14FF0080C08E07A
:100D9000DFF8A4C0604502D14FF0090C01E04FF02C
:100DA0000A0C0CFA07FC4CEA060CCEF808C44F6893
:100DB000DBF80060FF0226EA020600D516435F4614
:100DC000CBF80060D1F804C0DBF804605FEA8C2C3B
:100DD00026EA020600D516437E606E684F6826EA52
:100DE0000206BF0300D516436E602E684F6826EAE0
:100DF0000206FF0300D516432E605B1C0A6832FA18
:100E000003F67FF411AFBDE8F88F000080000058B2
:100E1000F444025800000258000402580008025826
:100E2000000C025800100258001402580018025812
:100E3000001C02580020025800240258426921EA8E
:100E400002030A4043EA0241816170470AB18161AD
:100E500070470904FBE7000001480068000C704778
:100E60000010005C01488068704700008800002482
:100E7000024881680278114481607047880000242C
:100E8000032010B500F0D8F801F068FA0F4A1049B5
:100E900014681368C4F3032203F00F038A5CC95C6F
:100EA00002F01F0201F01F01D0400A4A20FA01F1AE
:100EB0001160094908600F2000F010F808B1012006
:100EC00010BD00F079F8002010BD00001844025851
:100ED000DCA30008980000249400002470B50D4D98
:100EE00004462878A0B14FF47A71B1FBF0F00A49BA
:100EF0000968B1FBF0F002F0D3F848B9102C07D222
:100F000000222146501E00F077F800206C6070BD72
:100F1000012070BD8800002494000024154BF0B51A
:100F2000083B427813491A600B680A1F23F001033B
:100F30000B6043681360057BC67A827A437B2D077A
:100F4000847B45EA0665C77B90F809C0067A90F86D
:100F500000E045EAC24040EA834040EA444040EABB
:100F6000074040EA0C2040EA460040EA0E000860D4
:100F7000F0BD0000A0ED00E0BFF35F8F044800214A
:100F80000368034A23F480330360703211607047B2
:100F900024ED00E0074A40F001000649703210607D
:100FA000086840F480300860BFF34F8FBFF36F8F45
:100FB0007047000024ED00E0074882B0016841F06E
:100FC00002010160006800220F2100F00200009081
:100FD000901E02B000F010B8F4440258002809DB5B
:100FE000410900F01F028900012001F1E021904039
:100FF000C1F80001704700000E4BF0B41B680D46AD
:10100000C3F30223C3F10706042E00D90426191DD9
:10101000072901D2002300E0DB1E012404FA06F1B7
:101020009C40491E2940641E994014402143F0BC55
:1010300005F0D8BA0CED00E0064900F0070210B543
:101040004FF6FF040868044B204040EA0220184392
:10105000086010BD0CED00E00000FA0501680123F6
:10106000C0F8D834002280F8CC248869044A40F0C3
:1010700000608861486D104348650020704700009B
:1010800003000010F8B5040004D094F8950400257E
:1010900010B106E00120F8BD204684F8945400F019
:1010A00057F8032084F89504206805F0C9F9207CDE
:1010B0008DF8000094E80F0005F094F80226B0BB0C
:1010C0002068002105F0FCF988BB002001270CE016
:1010D00000EBC001421C04EB81014F750D76CD6120
:1010E0000D624D620875C885D0B221798142EFD872
:1010F000002011E000EBC001421C04EB810181F8EB
:10110000555281F85852C1F85C52C1F86052C1F88A
:10111000645281F85402D0B221798142EAD8207C0D
:101120008DF8000094E80F0005F0D4F810B184F8B1
:101130009564AFE7207B657484F89574012802D12B
:101140002046FFF78BFF206805F0B6F80020F8BDB9
:1011500010B5B6B00446142130A8FFF769F9C021D4
:101160006846FFF765F91B492068884230D10020A6
:101170004FF480214FF440122292CDE900106846CE
:1011800000F098FA08B1FFF720FD00F053F812487C
:10119000016841F00101016000680A23022200F0A9
:1011A0000100359000204FF4C051309130A9CDE9B5
:1011B0003120CDE933030948FFF72AFD06480838F6
:1011C000016841F000610160006800F00060359046
:1011D00036B010BD00000840E0440258000002583C
:1011E000134970B50A68D243520705D5096801F062
:1011F0000701814213D118E00A6822F00702024376
:101200000A60FFF72FFE0A4D4FF47A760446083D38
:1012100007E000BFFFF726FE001BB04201D9012006
:1012200070BD2868C0438004F4D4002070BD000065
:101230000C4802580248016841F080710160704713
:101240000C480258F8B50446FFF70CFE05461CB1E1
:1012500094F8410010B107E00120F8BD204600F0ED
:1012600047F841F28830A06420686FF0FF02A1685F
:10127000036802EB012223F4F85111430160A06CD2
:10128000002220212B460090204603F087FD0028F5
:10129000E3D12268D4E907352679E168176845EA81
:1012A0000665DFF844C01943104B29430025012689
:1012B00007EA0C07394311602268D4E90517B4F82E
:1012C00010C0D2F804E039430EEA030E4EEA0C4394
:1012D0001943516021680A6842F001020A6065649E
:1012E00084F84160F8BD00002FFFFF00FEF8E0FF2A
:1012F000F0B5B7B00446142130A8FFF799F8C02123
:101300006846FFF795F83A49206888426DD1002079
:1013100013904FF000710446CDE90010684600F0CC
:10132000C9F908B1FFF751FC3248016841F4804126
:101330000160006800F4804035902E480C30016850
:1013400041F010010160016801F010013591016860
:1013500041F002010160016801F00201359101686C
:1013600041F008010160016801F008013591016850
:1013700041F004010160006804270225309700F065
:101380000400CDE9315409263394CDE934601A487C
:1013900030A9FFF73DFC309730A9184FCDE9315403
:1013A000CDE933463846FFF733FC4FF420503090F8
:1013B000CDE93154124830A9CDE93346FFF728FC76
:1013C00068023090CDE931540E4830A9CDE933465A
:1013D000FFF71EFC0A2140203090CDE93154CDE9C1
:1013E000334130A93846FFF713FC37B0F0BD000099
:1013F00000500052D4440258001002580004025811
:10140000000C02580008025810B500F061FF0549B1
:101410000968054AC1F30211515C01F01F01C8407F
:1014200010BD000020440258DCA30008494930B533
:10143000484C0B1D0A68143409681D68246802F0C2
:101440000303C5F30012C1F30531C4F3CC04002932
:1014500014FB02F200EE102AF8EE400A75D03F4A63
:101460009FED3D1AB7EE000A6BB1DFED3D1A012B7F
:1014700001D0022B64D002EE101A1168F8EE422A55
:1014800081EEA22A21E0334C283C23689B0612D52A
:10149000344B246801EE901A1168C4F3C104F8EECD
:1014A000612AE34001EE903AC1F30801F8EE611AB7
:1014B00081EEA22A0BE001EE901ADFED2B2A00BF8D
:1014C000F8EE611A116882EEA12AC1F3080101EE5B
:1014D000901A1168F8EE611A40EE811A71EE800AD6
:1014E00062EE200AC1F3462101EE101AB8EE411A4D
:1014F00031EE001AC0EE811ABCEEE11A80ED001A3E
:101500001168C1F3064101EE101AB8EE411A31EE2E
:10151000001AC0EE811ABCEEE11A80ED011A1168C2
:10152000C1F3066101EE101AB8EE411A31EE000A5D
:1015300080EE801ABCEEC10A80ED020A30BD04E0E4
:1015400001EE901ADFED092ABAE70021016041603F
:101550008160F3E7284402580000003938440258FB
:101560000024744A0090D0030024744C20BCBE4B6D
:10157000494930B5484C0B1D0A681C3409681D6880
:10158000246802F00303C5F30022C1F30551C4F33C
:10159000CC04002914FB02F200EE102AF8EE400AF7
:1015A00075D03F4A9FED3D1AB7EE000A6BB1DFEDF3
:1015B0003D1A012B01D0022B64D002EE101A1168E3
:1015C000F8EE422A81EEA22A21E0334C283C23681F
:1015D0009B0612D5344B246801EE901A1168C4F3AF
:1015E000C104F8EE612AE34001EE903AC1F308012C
:1015F000F8EE611A81EEA22A0BE001EE901ADFEDFF
:101600002B2A00BFF8EE611A116882EEA12AC1F3FD
:10161000080101EE901A1168F8EE611A40EE811A85
:1016200071EE800A62EE200AC1F3462101EE101A23
:10163000B8EE411A31EE001AC0EE811ABCEEE11A82
:1016400080ED001A1168C1F3064101EE101AB8EEE0
:10165000411A31EE001AC0EE811ABCEEE11A80ED9B
:10166000011A1168C1F3066101EE101AB8EE411AB1
:1016700031EE000A80EE801ABCEEC10A80ED020A4B
:1016800030BD04E001EE901ADFED092ABAE700212F
:10169000016041608160F3E728440258000000398E
:1016A000404402580024744A0090D0030024744C33
:1016B00020BCBE4B2DE9FE4F0546DFF8E48350F811
:1016C000081B0024F64FC943019005F12800264667
:1016D00008F12408009008011DD4A86E50B1B0F59F
:1016E000801F0CD0B0F5001F0ED0B0F5401F1ED0EB
:1016F00001240FE0386840F40030386017E00198AA
:10170000022103F06FFB03E00098022103F0FAFBD3
:1017100004000CD026462888C043C00523D4A86DF9
:1017200005281ED2DFE800F00C11161B1B00AA6E64
:10173000D8F8001021F440111143C8F80010EAE76E
:10174000386840F40030386009E00198002103F067
:1017500049FB03E00098002103F0D4FB044674B178
:1017600000E0012426462888C043800528D4E86D7F
:1017700080281ED00CDC90B140280ED114E0AA6D58
:10178000D8F8001021F007011143C8F80010EAE76B
:10179000C02813D0B0F5807F10D001240FE0386846
:1017A00040F40030386009E00198002103F01AFB92
:1017B00003E00098002103F0A5FB04469CB12646F7
:1017C0002888DFF8DC92C04309F12C0940052CD4AD
:1017D000D5F8A800B0F5800F20D00DDCA0B1B0F591
:1017E000001F0FD115E0EA6DD8F8001021F4E07168
:1017F0001143C8F80010E3E7B0F5C00F13D0B0F5FF
:10180000000F10D001240FE0386840F40030386039
:1018100009E00198002103F0E5FA03E000980021B7
:1018200003F070FB04467CB126462888C0430005BF
:101830002DD4D5F8AC00B0F1007F21D00EDCA8B1DA
:10184000B0F1807F10D116E0D5F8A820D9F80010AB
:1018500021F460011143C9F80010E6E7B0F1407FC0
:1018600013D0B0F1806F10D001240FE0386840F43D
:101870000030386009E00198002103F0B3FA03E07A
:101880000098002103F03EFB044674B12646286808
:10189000C04380011FD4E86CD8B110280FD0202895
:1018A00012D0302815D0012414E0D5F8AC20D9F896
:1018B000001021F0E0611143C9F80010E7E7386833
:1018C00040F40030386004E00198022103F08AFA05
:1018D000044674B126462888C043C0042BD4286E21
:1018E000B0F5005F20D00DDCA0B1B0F5805F0FD166
:1018F00015E06B48EA6C2030016821F0300111439B
:101900000160E8E7B0F5405F13D0B0F5804F10D02C
:1019100001240FE0386840F40030386009E0019895
:10192000002103F05FFA03E00098002103F0EAFAD7
:1019300004468CB126462888C043800429D4686EAA
:10194000B0F5403F23D010DC08B3B0F5803F14D091
:10195000B0F5003F0FD115E02A6ED8F8001021F441
:10196000E0411143C8F80010E5E7B0F5802F0ED034
:10197000B0F5A02F0BD001240AE00198012103F05B
:1019800031FA03E00098012103F0BCFA044694B157
:1019900026462888C04340042AD4D5F8B000B0F1C8
:1019A000405F23D010DC08B3B0F1805F14D0B0F1F9
:1019B000005F0FD115E06A6ED8F8001021F4E02125
:1019C0001143C8F80010E4E7B0F1804F0ED0B0F139
:1019D000A04F0BD001240AE00198012103F002FA84
:1019E00003E00098012103F08DFA044674B1264605
:1019F0002888C04300041FD4286FD8B1B0F1805F9D
:101A00000ED0B0F1005F10D0012414E0D5F8B02062
:101A1000D9F8001021F0E0411143C9F80010E7E7C0
:101A2000386840F40030386004E00198012103F088
:101A3000D9F9044674B126462868C043C0011ED4B3
:101A4000A86CD0B101280ED0022811D0032814D0E0
:101A5000012413E02A6FD8F8001021F040511143FF
:101A6000C8F80010E8E7386840F40030386004E057
:101A70000198022103F0B6F90446ACB12646286865
:101A8000DFF81CB0C043ABF11C0B400252D4054838
:101A9000016841F480710160FFF7E4F9824611E0CA
:101AA0002C44025800480258FA48AA6C016821F0F8
:101AB000030111430160E2E7FFF7D4F9A0EB0A004C
:101AC000642835D8F4480068C005F5D58CBBDFF82C
:101AD000C4A3B5F8B4100AF1240ADAF8000001F43E
:101AE000407100F44070884211D0DAF80010DAF842
:101AF000002021F4407142F48032CAF80020DAF864
:101B0000002022F48032CAF80020CAF80010D5F86C
:101B1000B400B0F5807F1AD1FFF7A4F9029012E06B
:101B2000FFF7A0F90299411A41F2883081420AD99F
:101B3000032426462878DFF85CA3C0430AF1080A8C
:101B4000C00721D03CE0DAF800008007E8D5D5F8DE
:101B5000B410C1F30120032858460DD0016821F4C8
:101B60007C510160B5F8B420DAF80010C2F30B0222
:101B70001143CAF80010DDE7C84A036802EA1112EF
:101B800023F47C511143ECE7E86F182816D005DCEC
:101B9000A0B1082808D0102804D10AE020280DD0D0
:101BA00028280BD001240AE00198012103F01AF93A
:101BB00003E00098012103F0A5F9044664B126462C
:101BC0002878C04380071ED4A86F062819D2DFE802
:101BD00000F0160C11161616EA6FDAF8001021F054
:101BE00038011143CAF80010EAE70198012103F017
:101BF000F9F803E00098012103F084F904467CB170
:101C000000E0012426462878C04340071FD4D5F8B9
:101C10009400062819D2DFE800F0160C11161616EB
:101C2000AA6FDAF8001021F007011143CAF800107A
:101C3000E9E70198012103F0D5F803E000980121BC
:101C400003F060F90446A4B100E001242646287898
:101C5000C04380062BD4D5F89000B0F1405F24D06B
:101C600011DC10B3B0F1805F15D0B0F1005F10D17E
:101C700016E0D5F89420D9F8001021F0070111439F
:101C8000C9F80010E3E7B0F1804F0ED0B0F1A04FDB
:101C90000BD001240AE00198002103F0A3F803E02F
:101CA0000098022103F02EF9044694B126462878C4
:101CB000C04340062BD4D5F89C00B0F5406F24D02B
:101CC00011DC10B3B0F5806F15D0B0F5006F10D1F6
:101CD00016E0D5F89020DAF8001021F0E041114329
:101CE000CAF80010E3E7B0F5805F0ED0B0F5A05F52
:101CF0000BD001240AE00198002103F073F803E0FF
:101D00000098022103F0FEF8044694B12646287894
:101D1000C04300062BD4D5F8A000B0F5C04F24D0A6
:101D200011DC10B3B0F5005F15D0B0F5804F10D1C5
:101D300016E0D5F89C20D9F8001021F4E0511143A9
:101D4000C9F80010E3E7B0F5004F0ED0B0F5204F12
:101D50000BD001240AE00198002103F043F803E0CE
:101D60000098022103F0CEF8044654B126462878A4
:101D7000C04300071ED4D5F88400B0F5805F0AD0B8
:101D80000FE0D5F8A020D9F8001021F460411143EC
:101D9000C9F80010EBE70098022103F0B3F800B196
:101DA0000126D5F88420DAF8001021F440511143BF
:101DB000CAF800102878C043C00613D4D5F898009C
:101DC000B0F5807F05D10098022103F09BF800B1A7
:101DD0000126D5F89820D9F8001021F4407111435C
:101DE000C9F800102868C043000316D4D5F8A40031
:101DF00038B1B0F5803F09D0B0F5003F0BD00124D9
:101E00000AE00198002102F0EDFF03E000980221B2
:101E100003F078F804468CB126462868C043400396
:101E200022D4D5F88800B0F5801F11D0B0F5001F7E
:101E300013D0B0F5401F15D0012414E0D5F8A4202C
:101E4000D9F8001021F440311143C9F80010E4E73B
:101E5000386840F40030386004E00098012103F055
:101E600051F804465CB126462868C043C00323D419
:101E7000286DA8B1B0F5803F17D001241BE0D5F83C
:101E80008820DAF8001021F440111143CAF800103C
:101E9000EAE700004C44025800480258CFFFFF0018
:101EA000386840F40030386004E00198022102F004
:101EB00099FF0446E4B126462868C043800005D453
:101EC0000098022103F01EF800B101262868C043E3
:101ED00080031BD4D5F88000B0B1B0F5807F0FD05F
:101EE000B0F5007F10D0B0F5407F0DD001240CE09C
:101EF0005A482A6D016821F4803111430160DBE703
:101F0000386840F400303860ECB326462868C04397
:101F1000C00207D46A6FD8F8001021F000411143C5
:101F2000C8F800102868C043C00008D4D5F8B8200D
:101F3000DBF8001021F480411143CBF80010286831
:101F4000C043800207D4EA6ED8F8001021F08071F7
:101F50001143C8F800102868C04340000CD4DBF8D7
:101F6000001021F40041CBF80010DBF80010D5F888
:101F7000BC201143CBF800102868C04308D4374870
:101F80006A6D016800E018E021F0405111430160E2
:101F90002868C043000208D4D5F88C20DAF8001075
:101FA00021F440011143CAF8001028790024C043ED
:101FB00000F0010020430AD00FE0D5F88020DAF8C5
:101FC000001021F440711143CAF800109EE70198F7
:101FD000002102F007FF00B106462879C04300F057
:101FE0000200204305D10198012102F0FBFE00B15F
:101FF00006462879C04300F00400204305D101982B
:10200000022102F0EFFE00B106462879C04300F03D
:102010000800204305D10098002102F073FF00B1B1
:1020200006462879C04300F01000204305D10098EF
:10203000012102F067FF00B106462879C04300F095
:102040002000044304D10098022102F05BFF00B994
:1020500016B10120BDE8FE8F0020FBE74C4402587A
:10206000704700002DE9F05F04000F467ED0DFF8D6
:102070003882D8F8000000F00F00B8420CD2D8F82F
:10208000001021F00F013943C8F80010D8F8000003
:1020900000F00F00B84269D12078844D40070AD57E
:1020A0002069296801F07001884204D9296821F06B
:1020B00070010143296020787C4E361D00070AD547
:1020C0006069316801F07001884204D9316821F0FB
:1020D0007001014331602078C0060AD5A0693168DB
:1020E00001F4E061884204D9316821F4E0610143E0
:1020F00031602078DFF8B4B180060BF1080B0CD505
:10210000E1695846DBF8002002F07002914204D9E0
:10211000026822F070020A430260207880070AD524
:10212000E068296801F00F01884204D9296821F08C
:102130000F01014329602078C0073ED05B49A268A7
:102140002868183920F470601043286060680228FD
:1021500018D0032819D00968012819D04907002987
:102160004ADADFF848A1AAF1080A00E044E0DAF808
:10217000002022F007020243CAF80020FEF772FE98
:10218000814612E009688903E9E709688901E6E701
:10219000C905E4E7FEF766FEA0EB090141F28830CD
:1021A000814202D90320BDE8F09F6168DAF800009F
:1021B00000F03800B0EBC10FECD1207880070AD5D1
:1021C000E068296801F00F01884204D2296821F0F3
:1021D0000F0101432960D8F80010404601F00F01BB
:1021E000B9420BD9016821F00F0139430160006841
:1021F00000F00F00B84201D00120D4E7207840075A
:102200000AD52069296801F07001884204D2296842
:1022100021F0700101432960207800070AD5606928
:10222000316801F07001884204D2316821F07001F8
:10223000014331602078C0060AD5A069316801F4F5
:10224000E061884204D2316821F4E06101433160E9
:10225000207880060CD5E1695846DBF8002002F0B2
:102260007002914204D2026822F070020A430260B6
:1022700000F074F80E492A682B68C2F3032203F0B9
:102280000F038A5CC95C02F01F0201F01F01D040FD
:10229000084A20FA01F11160074908600748006800
:1022A000BDE8F05FFEF71ABE002000521844025845
:1022B000DCA3000898000024940000248C00002473
:1022C0000248016841F4002101607047004402584F
:1022D00030B500F043F80B4A0B490C4B15681468F5
:1022E000C5F3032204F00F048A5C095D02F01F02AB
:1022F00001F01F01D040064A20FA01F11960106078
:10230000084630BD18440258DCA300089800002499
:102310009400002400B5FFF7DBFF05490968054A72
:10232000C1F30211515C01F01F01C84000BD000063
:102330001C440258DCA3000800B5FFF7C9FF05499B
:102340000968054AC1F30221515C01F01F01C84030
:1023500000BD00001C440258DCA30008454970B5CC
:1023600045480968434B103B11F0380208D0011171
:10237000082A03D0102A0BD0182A0BD0084670BDAB
:1023800019688906FBD51968C1F3C101C84070BD41
:102390003A4870BD3749374D18310C1D24350A684D
:1023A000096826682D6802F0030406F00102C1F3F3
:1023B0000511C5F3CC0515FB02F200EE102AB8EEAC
:1023C000400AE9B32F4ADFED2E0AB7EE001A6CB1CE
:1023D000DFED2D1A012C01D0022C43D002EE101A91
:1023E0001068F8EE422A81EEA22A1EE01C68A406BC
:1023F00011D51B6801EE901A1168C3F3C103F8EE02
:10240000612AD84001EE900AC1F30800F8EE611A83
:1024100081EEA22A0BE001EE901ADFED1C2A00BF2C
:10242000F8EE611A106882EEA12AC0F3080001EEEE
:10243000900AF8EE611A40EE201A31EE810A00E0AF
:1024400015E022EE000A1068C0F34620401C00EEA2
:10245000900AF8EE600A80EE201ABCEEC10A10EE77
:10246000100A70BD01EE901ADFED092AD8E70020AE
:1024700070BD0000104402580090D00340787D01E8
:1024800000000039304402580024744A0024744C7F
:1024900020BCBE4B064810B50068400506D5FFF7C6
:1024A000DFFD03494FF48060091D086010BD000086
:1024B000644402582DE9F05F04007DD0FF4F20787E
:1024C000FE4D1837DFF8F493103DC00748D0D9F817
:1024D0000000396800F03800102815D0182803D102
:1024E00001F0030002280FD06068B0F5803F12D0E1
:1024F00010B1B0F5A02F18D0286820F480302860E3
:10250000286820F4802009E02868800328D56068C6
:102510000028D2D024E0286840F480302860606829
:1025200088B1FEF79FFC064609E0286840F4802049
:102530002860F0E7FEF796FC801B64286FD82868B7
:102540008003F7D50CE0FEF78DFC064605E000BFE2
:10255000FEF788FC801B6428F0D828688003F7D435
:10256000207841F20308D54E0C3E800769D5D9F892
:102570000000396810F038000ED0182801D1880703
:102580000AD0E06890B3296821F01901014329605D
:10259000FEF768FC824631E02868400702D5E06813
:1025A00000288AD0E168286820F0190008432860D4
:1025B000FEF758FC824607E0DFE000BFFEF752FC62
:1025C000A0EB0A000228B9D828684007F6D500BF5A
:1025D000FEF742FC40451BD82069402812D03168E4
:1025E00021F47C3141EA003030602AE018E000BF7D
:1025F000FEF738FCA0EB0A0002289FD828684007A5
:10260000F6D5E5E7306820F47C3040F40030EBE7A5
:10261000207C316821F0FE4141EA0060E4E70DE1F1
:10262000286820F001002860FEF71CFC824605E0C7
:10263000FEF718FCA0EB0A0002288DD82868400796
:10264000F6D42078C0065DD5D9F80000DFF86CB26A
:10265000396800F03800ABF1040B082810D01828B6
:1026600003D101F0030001280AD0E069002828689E
:1026700038D040F080002860FEF7F4FB824623E06B
:102680002868C00523D5E069802876D11FE0206A3C
:10269000202821D0316821F0F84141EA8060306083
:1026A00030E000BF94F82010DBF8002022F07C52CC
:1026B00042EA0161CBF8001024E000BFFEF7D2FB34
:1026C000A0EB0A00022898D82868C005F6D5FEF7C6
:1026D000C3FB4045E6D8DAE7306820F0F84040F028
:1026E0008040DCE720F080002860FEF7BBFB064658
:1026F00005E000BFFEF7B6FB801B02289DD82868C6
:10270000C005F7D42078000729D56C48616964308A
:1027100000298046016811D041F001010160FEF7F7
:10272000A1FB064605E000BFFEF79CFB801B0228CC
:10273000C9D8D8F800008007F6D510E021F00101D3
:102740000160FEF78FFB064605E000BFFEF78AFB3F
:10275000801B022872D8D8F800008007F6D42078B1
:10276000800623D5A0690028286810D040F4805046
:102770002860FEF777FB064605E036E1FEF772FBC0
:10278000801B02285AD828688004F7D50EE020F470
:1027900080502860FEF766FB064604E0FEF762FB09
:1027A000801B02284AD828688004F7D42078400784
:1027B0004FD5DFF80C81D8F8001041F48071C8F8CB
:1027C0000010FEF74FFB064605E000BFFEF74AFB90
:1027D000801B642832D8D8F80000C005F6D5374EE3
:1027E000A068603601280AD008B1052813D03068E7
:1027F00020F001003060306820F0040002E0306812
:1028000040F001003060A06841F2883A90B1FEF7D4
:1028100029FB80460AE0306840F004003060EEE7B3
:10282000FEF720FBA0EB0801514507D83068800770
:10283000F6D50EE0FEF716FB804607E084E000BF09
:10284000FEF710FBA0EB080151457DD830688007EA
:10285000F6D4606AB0B3DFF86480D9F8001008F1EC
:1028600020084FF6F87B08F10409C1F3C2010329DF
:10287000A8F1040A69D00228286820F08070286036
:1028800003D0FEF7EFFA044684E0FEF7EBFA0646C3
:1028900005E000BFFEF7E6FA801B022877D828681B
:1028A0008001F7D4E26A40F2F331386854F8283FE7
:1028B000884340EA02101843386004E0104402588C
:1028C00000480258B5E0217B434622894FF4FE0CB4
:1028D000208A4FF0FE474902267D521E401EA1F578
:1028E0000071C2F308088AB2761E0CEA004042EA80
:1028F00008020243504607EA06610A431A60DAF802
:10290000002022F00102CAF80020D9F80020266A2F
:1029100022EA0B0242EAC602C9F80020DAF80010E7
:10292000A26921F00C011143CAF800100168E269A4
:1029300021F0020111430160016841F4803101601E
:10294000016841F4003101E021E027E00160016805
:1029500041F480210160016841F0010101602868B3
:1029600040F080702860FEF77DFA044605E000BF65
:10297000FEF778FA001B022809D828688001F7D5ED
:1029800057E000BFFEF76EFA001B022802D90320B1
:10299000BDE8F09F28688001F4D44AE03968012836
:1029A000D8F8000021D0A26A01F0030393421CD1A1
:1029B000E26AC1F305118A4217D1216BC0F3080204
:1029C000491E8A4211D1616BC0F34622491E9142D1
:1029D0000BD1A16BC0F30642491E914205D1E16BB8
:1029E000C0F30660491E814201D00120D0E7A16CEE
:1029F0004E46D9F80000C0F3CC00814219D0DAF875
:102A00000000554620F00100CAF80000FEF72AFA3F
:102A10004FEA0007FEF726FAB842FBD0A26C3068F6
:102A200020EA0B0040EAC2003060286840F0010054
:102A300028600020ACE700002DE9F047040029D011
:102A4000594A4FF000092068584B594D9042C4F83C
:102A5000289006D0984204D0A84202D0E1680F29FD
:102A600018D8E1684FF0010AE76B0831C9080AEB92
:102A700057167143904205D0984203D0A84201D026
:102A8000082907D8904203D0984201D0A84204D127
:102A9000102902D90120BDE8F08794F8810020B9FF
:102AA000204684F8809000F085F8022084F88100A8
:102AB0002068016821F0010101602068A169826835
:102AC000B1F1806F02F4F81110D16268B2F5800F95
:102AD00001D01AB10AE0A26B22B107E0A26BB2F1F9
:102AE000805F03D1026842F4805202606068400255
:102AF00009D5E068072806D32068236D026822F410
:102B000080721A4303E02068026822F48072026037
:102B1000A66AE069E26B25683043E3680A43104324
:102B20001843A860D4E90D02D4E90581636A2569D8
:102B30001843D4F820C00A43266810432843A56DE3
:102B4000D4E90172D4E9123140EA080040EA0C00ED
:102B500038430843104318432843F060606868B95D
:102B60002068816821F4C05141F4006181602068CF
:102B7000816821F4C06141F4806181602068016D49
:102B800021F0010101656068400206D52068626D90
:102B9000C16821F000411143C160C4F8849084F8F9
:102BA00081A0002077E7000000300140003800409D
:102BB000003C00402DE9F043B7B00446142130A892
:102BC000FDF736FCC0216846FDF732FC5549052665
:102BD00020680225DFF84881002488426ED1502306
:102BE000CDE903358027059506958014CDE9077456
:102BF00009940021189081468DE843006846FEF74D
:102C000059FD08B1FDF7E1FF45480830016841F47E
:102C100080410160006800F480403590D8F80000E1
:102C200040F00400C8F80000D8F8000000F00400EC
:102C30003590D8F8000040F00200C8F80000D8F83D
:102C4000000000F002003590D8F8000040F00100CC
:102C5000C8F80000D8F8000030A9309500F0010055
:102C6000CDE931543394CDE934602F48FDF7D0FFDE
:102C7000CDF8C09030A9CDE931542C48CDE9334688
:102C8000FDF7C6FF4FF400703090CDE9315428486D
:102C900030A9CDE93346FDF7BBFF30950126254D20
:102CA00030A9CDE9316428463394FDF7B1FF309661
:102CB00030A9CDE93164284633942BE01E4988427F
:102CC0002AD1411419940020CDE900106846FEF77E
:102CD000F1FC08B1FDF779FF11481030016841F4AB
:102CE00000510160006800F400503590D8F80000F1
:102CF00040F01000C8F80000D8F8000030A900F03B
:102D0000100035904FF483503090CDE931540B488A
:102D1000CDE93346FDF77CFF37B0BDE8F083000016
:102D2000E0440258003800400008025800040258ED
:102D300000000258002402580034014000100258DC
:102D40002DE9FF4F0446C06B81B01D461746400970
:102D5000401C1FFA80FBFEF785F8824694F881003C
:102D60002E46012835D1029800287CD0002FFCD0B7
:102D7000002DFAD094F8800001282AD04FF00109E4
:102D800084F8809005224FF0000884F88120C4F870
:102D900084806766A4F86A50A4F868500299E165D7
:102DA000A4F86250A4F86050C4F87080C4F874802D
:102DB0002068C16821F4C021C160AC492068884204
:102DC00005D0AB49884202D0AA49884205D11027D4
:102DD00004E0022005B0BDE8F08F082741686FF3DA
:102DE0000F01294341602068016841F00101016041
:102DF0006068B0F5800F04D12068016841F400716B
:102E00000160E0680F284CD9BF0838E020684169AC
:102E1000890710D57EB1F119A9420CD9E16D096875
:102E20000162E06D001DE065B4F86200401EA4F888
:102E30006200B4F862602068416905B34269D20754
:102E400003D15D4510D209040ED5006B616E086098
:102E5000606E001D6066B4F86A00401EA4F86A0047
:102E6000B4F86A500BE0EEE0FDF7FCFFA0EB0A01BE
:102E70000E98814202D3401C01D004E018B156EAFA
:102E80000500C3D1C6E0204602F0DCF8D4F8840087
:102E900084F8808040F48070C4F8840084F88190C5
:102EA000E0E0072879D97F084BE02068416989076D
:102EB00010D57EB1F119A9420CD9E16D09880184C0
:102EC000E06D801CE065B4F86200401EA4F862006A
:102ED000B4F86260206841691DB34269D20709D025
:102EE000008E616E0880606E801C6066B4F86A00B7
:102EF000401E12E05D4515D20A0413D5008E616EA6
:102F00000880606E801C60662168098E0180606E9A
:102F1000801C6066B4F86A00801EA4F86A00B4F8E9
:102F20006A500EE0012D01D18904D9D4FDF79AFF32
:102F3000A0EB0A010E98814202D3401C01D084E02C
:102F400060B356EA0500B0D164E0206841698907A2
:102F500011D586B1F119A9420DD9E16D097880F832
:102F60002010E06D401CE065B4F86200401EA4F83B
:102F70006200B4F862602068416975B14269D207A5
:102F80000DD000BF90F83000616E0870606E401C7C
:102F90006066B4F86A00401E24E038E055E05D4504
:102FA00025D20A0423D590F83000616E0870606E57
:102FB000401C6066216891F830100170606E401C02
:102FC0006066216891F830100170606E401C606688
:102FD000216891F830100170606E401C6066B4F892
:102FE0006A00001FA4F86A00B4F86A500FE0042DCC
:102FF00002D211F4C04FC5D1FDF734FFA0EB0A0196
:103000000E98814202D3401C01D01EE0E8B156EA7E
:1030100005009AD10E9B002208212046CDF800A081
:1030200002F06EF828B1D4F8840040F02000C4F813
:103030008400204602F006F884F88190D4F88410C9
:1030400084F8808081B10120C4E6204601F0FAFFB7
:10305000D4F8842084F8808042F48072C4F88420FC
:1030600084F881900320B5E60020B3E600300140EB
:1030700000380040003C0040024A136883430B4381
:10308000136070470404005804284FF0E0200169E1
:1030900003D021F004010161704741F00401FAE717
:1030A000401EB0F1807F10B501D3012010BD4FF05C
:1030B000E02460610F21601703F094FA0020A06102
:1030C0000721216110BD7047704770472DE9F0431B
:1030D00090F83C20012A42D0012280F83C2051F88F
:1030E0000C4BDFF880804FF0000991E8680051E94F
:1030F000022723F44073B1F80CC03B43CF6923F49B
:1031000080631343026823F40063234323F4805352
:1031100043EA050323F4005343EA060323F4804300
:1031200043EA07030C3923F47023424543EA0C4376
:1031300002D00D4CA2420CD18D8C23F47006D1E943
:10314000073446EA055121F08071194321F00073DC
:103150002343536480F83C900020BDE8F0830220B4
:10316000FBE700000000014000040140F0B590F8CA
:103170003C20012A3BD01F4E012480F83C40022213
:1031800080F83D2002681C4D5368B242D2F808C056
:1031900001D0AA4203D14F6823F470033B430F6868
:1031A00023F070031F4357600268B24213D0B2F19C
:1031B000804F10D0114B9A420DD0114B9A420AD039
:1031C000104B9A4207D0AA4205D00F4B9A4202D028
:1031D0000E4B9A4204D189682CF080031943916008
:1031E000002180F83D4080F83C100846F0BD0220E8
:1031F000F0BD000000000140000401400004004058
:1032000000080040000C0040001800400040014051
:1032100010B5040003D094F83D0010B107E0012080
:1032200010BD002084F83C00204600F023F8022066
:1032300084F83D002068211D02F0C2F9012084F8C5
:10324000480084F83E0084F83F0084F8400084F889
:10325000410084F8420084F8430084F8440084F874
:10326000450084F8460084F8470084F83D000020BB
:1032700010BD000008B5114A01681148914211D1F2
:10328000016841F01001016000680022052100F092
:10329000100000903620FDF7AFFEBDE80840362054
:1032A000FDF79CBE074A914207D1016841F08001B9
:1032B0000160006800F08000009008BD0010004030
:1032C000E8440258001C004090F83D10012901D04C
:1032D00001207047174A022180F83D100168CB6831
:1032E00043F00103CB600068904214D0B0F1804FEE
:1032F00011D0114988420ED0104988420BD0104994
:10330000884208D00F49884205D00F49884202D030
:103310000E49884207D181680D4A1140062906D01E
:10332000B1F5803F03D0016841F001010160002048
:103330007047000000000140000400400008004009
:10334000000C004000040140001800400040014013
:10335000070001002DE9F04104000D4603D094F868
:103360003D0018B108E00120BDE8F081002084F89C
:103370003C00204600F04CF8244A022084F83D002E
:1033800020688168114081602068211D02F018F9D1
:10339000226840F20336AF6940F60C4C2B684FF2BE
:1033A000F00EA86891680B439169B14341EA072187
:1033B0000843D5E9031720EA0C00D5E9076C20EA99
:1033C0000E00D2F820E03F0140EA062668686D69E9
:1033D000314347EA0C37936023680F4301219F6113
:1033E0002EF0AA0242EA051322681843106284F8FC
:1033F000481084F83E1084F83F1084F8441084F894
:10340000451084F83D100020AEE70000F8BFFEFF35
:10341000F0B587B0054614216846FDF709F84D4917
:1034200000242B6802254B4A08394B48B3F1804FE2
:103430004A4E19D04A4FBB4244D1106840F00200B6
:103440001060106800F002000590086840F0040069
:1034500008600868694600F004000590C0200090EC
:103460004048CDE9015471E0136843F00103136053
:10347000126802F0010205920A6842F001020A6035
:103480000A6802F0010205920A6842F002020A602C
:103490000968012701F002010591F9030091CDE9C6
:1034A0000154CDE903476946FDF7B2FB08200090BF
:1034B000CDE90154CDE9034769463046FDF7A8FB45
:1034C00007B0F0BD284FBB4228D1106840F004007F
:1034D0001060106800F004000590086840F00800D3
:1034E0000860086800F008000590086840F00200D5
:1034F00008600868694600F0020005909814009082
:10350000CDE901541948CDE90345FDF781FB802041
:103510000090CDE901546946304617E0144EB3429D
:10352000CED1136843F008031360126802F008025A
:1035300005920A6842F001020A60096801F001017F
:10354000059103210091CDE901546946CDE9034578
:10355000B4E70000E8440258000002580004025892
:10356000000400400008025800080040000C025807
:10357000000C004070B504464FF0020094F83E2065
:1035800094F83F5094F8446094F8453021B10429F0
:103590000DD0012A1AD113E0012A17D1012E15D11D
:1035A00084F83E0084F844000021206820E0012DCA
:1035B0000CD1012B0AD184F83F0084F8450014E0B7
:1035C000012D03D1012E01D1012B01D0012070BDAD
:1035D00084F83E0084F83F0084F8440084F84500F5
:1035E00001222068002102F051F820680122042104
:1035F00002F04CF82068016841F0010101600020F0
:1036000070BD70472DE9F041044600680027C66888
:103610000569A90713D5B10711D5FA1E0261012169
:103620002177206880698007204602D0FFF7E9FFF4
:1036300004E000F0CFF8204600F0A4F927776807EF
:1036400016D5700714D5226802206FF004011161AD
:1036500020772068806910F4407F204602D0FFF771
:10366000D0FF04E000F0B6F8204600F08BF9277791
:10367000280715D5300713D5226804206FF00801FC
:10368000116120772068C0698007204602D0FFF7CB
:10369000B8FF04E000F09EF8204600F073F92777A9
:1036A000E80616D5F00614D5226808206FF0100140
:1036B000116120772068C06910F4407F204602D055
:1036C000FFF79FFF04E000F085F8204600F05AF96C
:1036D0002777E80708D0F00706D021686FF00100CF
:1036E0000861204600F04FF9280601D4A80408D547
:1036F000300606D521686FF4025008612046FFF7B6
:10370000E3FCE80508D5300606D521686FF4807023
:1037100008612046FFF7D7FC680608D5700606D575
:1037200021686FF040000861204600F02DF9A806DE
:103730000AD5B00608D521686FF020000861204640
:10374000BDE8F041FFF7C1BCBDE8F08110B586B01F
:10375000044614216846FCF76BFE194A00202368D2
:10376000184993424FF0020212D10B6843F0100344
:103770000B600968012301F0100105914FF4D44159
:103780000091CDE90120CDE903030F48694613E01C
:103790000E4CA34212D10B6843F001030B60096881
:1037A000092301F00101059140210091CDE901209B
:1037B000CDE9030306486946FDF72AFA06B010BDB5
:1037C00000000140E044025800100258001C004074
:1037D00000000258704770B5044690F83C0000267F
:1037E0000D4601280BD0012084F83C000C2A4AD059
:1037F00007DC82B1042A20D0082A06D131E0022059
:1038000070BD102A53D0142A63D00126002084F8FA
:103810003C00304670BD206801F046FF2068816999
:1038200041F0080181612068816921F00401816112
:1038300020682A698169114311E0206801F086FF40
:103840002068816941F4006181612068816921F407
:103850008061816120682969826942EA0121816170
:10386000D4E7206801F0BEFF2068C16941F008017B
:10387000C1612068C16921F00401C16120682A6921
:10388000C169114311E0206801F0F8FF2068C169A7
:1038900041F40061C1612068C16921F48061C161A6
:1038A00020682969C26942EA0121C161AEE7206846
:1038B00002F020F82068416D41F008014165206860
:1038C000416D21F00401416520682A69416D114371
:1038D00011E0206802F048F82068416D41F4006171
:1038E00041652068416D21F4806141652068296946
:1038F000426D42EA0121416588E710B5040003D01A
:1039000094F83D0010B107E0012010BD002084F8BC
:103910003C00204600F022F8022084F83D00206898
:10392000211D01F04DFE012084F8480084F83E007E
:1039300084F83F0084F8400084F8410084F8420095
:1039400084F8430084F8440084F8450084F8460075
:1039500084F8470084F83D00002010BD08B50068D9
:103960000649884208D10648016841F0010101601A
:10397000006800F00100009008BD00000000014058
:10398000F044025870477047704730B590F8841083
:10399000012918D0012280F884202421C0F8881041
:1039A0000022202401680B680D6823F0005325F0E5
:1039B00001050D60426601680B60C0F8884080F820
:1039C0008420104630BD022030BD70B5044690F80A
:1039D000840001281DD0012284F884202420C4F80A
:1039E000880020680568026822F0010202602068F1
:1039F000826822F060620A438260204602F0CCF8BE
:103A00002268202100201560C4F8881084F8840002
:103A100070BD022070BD70B5044690F88400012886
:103A20001DD0012284F884202420C4F88800206856
:103A30000568026822F0010202602068826822F0B4
:103A400060420A438260204602F0A6F822682021E4
:103A500000201560C4F8881084F8840070BD02202E
:103A600070BD10B5040003D0D4F8880010B107E091
:103A7000012010BD002084F88400204600F026F8C4
:103A80002420C4F888002068016821F00101016049
:103A9000A06A10B1204602F0A1F8204602F082F997
:103AA0000128E6D02068416821F4904141602068F7
:103AB000816821F02A0181602068016841F00101DC
:103AC00001602046BDE8104002F0ECB870B5B6B019
:103AD0000446142130A8FCF7ABFCC0216846FCF773
:103AE000A7FC3649022620680025354C884237D18C
:103AF00000201E950221CDE900106846FDF7DAFD91
:103B000008B1FDF762F82E480830016841F4002141
:103B10000160006800F400203590206840F0040047
:103B20002060206800F004003590206840F0080014
:103B300020602068082430A900F008003590200299
:103B40003090CDE931651F48CDE93354FDF760F879
:103B5000309630A9CDE931651B48CDE9335429E0D1
:103B60001A49884228D100201F950121CDE9001073
:103B70006846FDF79FFD08B1FDF727F810481030A3
:103B8000016841F010010160006800F010003590FC
:103B9000206840F0020020602068042100F002004C
:103BA00035904FF440403090CDE93165CDE9335147
:103BB000074830A9FDF72CF836B070BD004C004026
:103BC000E044025800080258000C0258001001405E
:103BD000000402582DE9F8430446D0F888009846BE
:103BE00016460D46202802D00220BDE8F883A5B174
:103BF0009EB10021C4F890102120C4F88800183428
:103C0000FDF730F9814654F8100CA687E687202787
:103C1000183CB0F5805F02D003E00120E5E72069A1
:103C200010B12E46002510E000260EE0802120462F
:103C300002F08EFAC0B9DEB116F8010B2168886275
:103C4000B4F85600401EA4F85600B4F856004B468F
:103C50004FF00002CDF800800028E7D14FF040017E
:103C6000204602F075FA48B1C4F888700320BCE71A
:103C700035F8020B2168C0F30800E0E7C4F888704B
:103C80000020B2E7FEE7000000B5944AB0EE415ACA
:103C9000F0EE605A2DED0A8BB0EE406A9FED900A6F
:103CA0009048D2ED060AD2ED090AD2ED070AD2ED0C
:103CB000080A006892ED06AAD2ED06CA92ED06CA7D
:103CC000D2ED079A92ED069AD2ED08BAD2ED078AA4
:103CD00092ED07BAD2ED077A92ED098AD2ED086A21
:103CE00092ED087AD2ED08AAD2ED094AD2ED090A7E
:103CF00092ED091AD062D06A916A27EE888A66EE40
:103D0000877A2AEE2CAA6CEE299A29EE2B9A68EE75
:103D10008B8A2AEEA47A60EE816A884206D2916A82
:103D20004FF6FF70D36A401A184402E0D06A916AD5
:103D3000401A00EE900AD06AF8EE600AC0EE804A9F
:103D4000906221EEA10A02EE020A02EEA20A03F03C
:103D500093FF61EE801A22EE002A62EE802A23EEA3
:103D6000030A03EEA30A04EE040A03F085FF3AEE09
:103D7000681A39EE870AF0EE000A38EE493A31EE59
:103D8000671A20EE200A23EE203A71EE263A62EE00
:103D9000830A22EE231A41EEE30A02EEC01A21EE54
:103DA000800A02EE430AB5EEC01AF1EE10FA37D0DF
:103DB000F5EEC00AF1EE10FA32D0B5EEC00AF1EE1F
:103DC00010FA2DD09FED482AD2ED032AF6EE001A04
:103DD00061EE023A20EE823A20EE022A00EE215AEB
:103DE00043EEA42A01EE216A40EEA15AC2ED032A55
:103DF00092ED040A03EE240A82ED040A92ED050A0C
:103E000002EE240A82ED050A92ED031AD2ED040AAD
:103E100092ED050A36EE016A75EEA05A35EE005AAB
:103E200092ED070AD2ED089A92ED061A26EE400AA4
:103E300092ED089A21EE061AD2ED097A09EEE50A0A
:103E4000D2ED063A09EE051A92ED097A63EEA53A2B
:103E5000D2ED078A07EEC50A92ED063AD2ED060AC0
:103E600048EEC53A07EE651A60EE850A00EE243A80
:103E7000D2ED071AD2ED096A92ED078A41EE241AB3
:103E800046EE863A48EE250A23EE030A92ED082A0A
:103E900092ED084AD2ED092A03EEA42A44EE460A1E
:103EA00001EEA10A40EEA42A02EE020A02EEA20AE4
:103EB00003F0E2FE63EE000A21EE801A62EE001AC1
:103EC00022EE800AC2ED060A82ED071AC2ED081A38
:103ED00082ED090ABDEC0A8B00BD00003C00002405
:103EE00000409C46000000246F12833A0E4991ED79
:103EF000000A80ED000A91ED010A80ED010A91EDC2
:103F0000020A80ED020A91ED030A80ED030A91EDA9
:103F1000040A80ED040A91ED050A80ED050A91ED91
:103F2000060A80ED060A70478415002410B5044681
:103F3000194800F039F818499FED180ADFED181AF2
:103F400091ED041A91ED052AD1ED030A61EE002AE4
:103F500022EE002A20EE803AC2EEA10A82EE211A59
:103F600083EE210AD1EC031A183191EC033AFFF7E2
:103F70008BFE0C4890ED060A84ED000A90ED070ACE
:103F800084ED010A90ED080A84ED020A90ED090A19
:103F900084ED030A10BD0000F0310024DB0F49401E
:103FA000000034433C00002430B58DB0044603A922
:103FB000684606AA03F0E2FA3E4864219DED000A35
:103FC0000AAB80ED000A9DED010A07AA80ED010A07
:103FD0009DED020A80ED020A9DED030A80ED030AC1
:103FE0009DED040A80ED040A9DED050A80ED050AA9
:103FF0009DED060A80ED060A0C3003F071FB2D489A
:104000002D4A079B0C382D4993421FDA089B934297
:104010001CDA099B934219DA8A68632A16DBDDED04
:104020000A0A9FED270AC0ED000ADDED0B0A002207
:10403000C0ED010ADDED0C0A0125C0ED020A81ED9B
:10404000030A81ED040A81ED050A03E08A68642A07
:1040500001DA521C8A609DED000A002D84ED000AF1
:104060009DED010A84ED010A9DED020A84ED020A2C
:10407000D0ED000A9DED030A30EE600A84ED030ADC
:10408000D0ED010A9DED040A30EE600A84ED040AC9
:10409000D0ED020A9DED050A30EE600A84ED050AB6
:1040A00081ED0C0A03D0DFED070AFCF781FC0DB0AF
:1040B00030BD0000841500240AD7A33C3C00002436
:1040C000000000000BD7A33B10B504462DED088B74
:1040D00084B06846FFF72AFFDDED020AF8EE008A99
:1040E000DDED011AB0EE008A20EEA81A61EE882AF2
:1040F0009DED030A9DED002A21EE201A60EE081ABC
:1041000022EE082A62EEA00AB7EE00AA01EEC01A5B
:1041100042EE000A31EE0A1AB7EEE00AB7EEC11A13
:1041200002F076FC9FED289B9FED29BB20EE090B4A
:1041300080EE0B1BB7EEC10B84ED000A9DED030A68
:10414000DDED020A9DEC021A21EE081A61EEA81AB2
:1041500021EE800A01EE200AB7EEC00A02F054FAFE
:1041600020EE090B80EE0B1BB7EEC10B84ED010AAC
:104170009DED010A9DED001ADDED020A60EE281AA0
:1041800061EE082A20EE881A9DED032A61EE801A5E
:1041900021EE022A41EE601A02EE802A31EE8A0AEE
:1041A000B7EEC01AB7EEC20A02F032FC20EE090BDD
:1041B0009FED091B80EE012BB7EEC20B84ED020AC6
:1041C00004B0BDEC088B10BD00000000008066400C
:1041D00000000060FB2109C000000060FB210940D5
:1041E00001221146104610B504F090FD20B1BDE843
:1041F00010400DA002F0CEB910489FED0F0AF7EE67
:10420000000AC0ED060A80ED070A80ED080A0C4995
:1042100080ED090A80ED030A80ED040A80ED050AAD
:1042200009688162C16210BD494D55204552524F07
:104230005221210D0A000000000000003C00002473
:10424000000000241CB501212B4A084604F03EF86A
:104250002A4C0021284A1032A062102004F036F8BF
:10426000254A0121E0620846183A04F003F860622A
:104270000021234A234804F075F8214A0021606098
:104280002148243204F06EF81D4A0021A0601F4826
:10429000483204F067F81A4A0021E0601C486C328A
:1042A00004F060F8164A002120611A48903204F0A8
:1042B00059F8114A002160611748843A04F052F815
:1042C0000D4A0021A0611548603A04F04BF80A4AF3
:1042D0000021E06112483C3A04F044F800222062D8
:1042E0001D2112481346CDE900124FF400720DA1B2
:1042F00005F0A8FD1CBD000094A3000808000024E0
:104300005CA20008ED5A0008775A0008115B00080B
:10431000DD590008895A0008C15A00087F5A000870
:10432000095B000854657374000000002D5A0008F2
:104330002DE9F04F87B014216846FCF779F86448FE
:10434000016841F010010160016801F01001059160
:10435000016841F004010160016801F00401059168
:10436000016841F080010160016801F08001059160
:10437000016841F001010160016801F0010105914E
:10438000016841F002010160016801F0020105913C
:10439000016841F008010160006800229B2100F0E3
:1043A000080005904B48FCF751FDDFF82C810022F6
:1043B00042F239014046FCF749FDDFF82091002226
:1043C00004214846FCF742FDDFF814A1002240F228
:1043D00003415046FCF73AFDDFF808B1002244F2F1
:1043E00018415846FCF732FD01256946022688200F
:1043F0000024CDE900053748CDE90246FCF708FC6A
:10440000032769461020CDE900053248CDE902476F
:10441000FCF7FEFB68030090CDE901546946404675
:104420000394FCF7F5FB39206946CDE90005CDE999
:1044300002464046FCF7ECFB04206946CDE9000546
:10444000CDE902474846FCF7E3FB40F201406946EC
:10445000CDE90005CDE902475046FCF7D9FBCDE98F
:104460000065CDE9024669465046FCF7D1FBA8023B
:104470006946CDE90005CDE902465846FCF7C8FB80
:10448000A8036946CDE90005CDE902475846FCF787
:10449000BFFBE80369468DE831005846FCF7B8FBDE
:1044A00018200090CDE90154694658460394FCF762
:1044B000AFFB00976946CDE9015406480394FCF729
:1044C000A7FB0021E806FEF7D7FD07B0BDE8F08F97
:1044D000E044025800100258000802580000025838
:1044E00000040258000C02580C48002110B50122AB
:1044F000094CFF23C0E90221C0E904218161C161A7
:104500000162C0E90043FCF79DFE002803D0BDE82E
:104510001040FCF75ABB10BD0050005294330024E9
:1045200070B514484FF480050021114CEB010322B3
:10453000C0E90321C0E90513C1615A0001626E118F
:1045400041628162C162C0E90D21C16301644164BD
:104550008164C16401654165816580E87000FEF792
:104560006BFA002803D0BDE87040FCF72EBB70BD8D
:1045700000380040383C00242DE9F04117484FF442
:104580008007DFF854C00021FA000726C0F800C0F9
:104590001301C0E90362C0E90171C0E9073141625A
:1045A0005510540081625201C162C0E90D21C163FE
:1045B000016441648164C164016541658165C0E94C
:1045C0000554FEF739FA002803D0BDE8F041FCF7A6
:1045D000FCBABDE8F081000000340140C03C00247A
:1045E00010B588B01C216846FBF722FF1448002450
:1045F0004FF6FF71114AC0E90024C0E9024104618D
:104600008461FEF705FE08B1FCF7DFFA0C48FFF7FE
:1046100074F908B1FCF7D9FA60206946CDE90004C5
:104620000748002202940494FFF7D5F808B1FCF77C
:10463000CCFA0348FFF78AF808B010BD001C004010
:10464000103F002410B596B0002468461C21129437
:1046500013941494FBF7ECFE2C2107A8FBF7E8FE5B
:104660002E484FF6FF722C49C0E90014C0E90242FF
:10467000046144618461FFF740F908B1FCF7A5FAD1
:10468000264812A9129413941494FEF76FFD08B1F2
:10469000FCF79BFA60206946CDE900041F48002220
:1046A00002940394049405940694FFF794F808B1D7
:1046B000FCF78BFA194804226946FFF78CF808B119
:1046C000FCF783FA154808226946FFF784F808B119
:1046D000FCF77BFA11480C226946FFF77CF808B119
:1046E000FCF773FA4FF400500794089409940103FF
:1046F0000A94CDE90B40CDE90E41084807A90D9475
:1047000010941194FEF7E2FC08B1FCF75EFA03483E
:10471000FFF71CF816B010BD00000140483D002412
:1047200010B58CB024216846FBF782FE14480024A3
:10473000012109948A1E0A948B070B94C0E9003466
:10474000C0E9024204618461CDE90014CDE902149C
:104750000494CDE90541694607940894FEF7FAFDF3
:1047600008B1FCF732FA064809A909940B94FEF740
:10477000FDFC002801D0FCF728FA0CB010BD0000A9
:10478000943D002410B58CB024216846FBF750FE00
:10479000154800244FF6FF72124B099401210A9428
:1047A0000B94C0E90034C0E9024204618461CDE9A0
:1047B0000014CDE902140494CDE90541694607943B
:1047C0000894FEF7C7FD08B1FCF7FFF9064809A9F0
:1047D00009940B94FEF7CAFC002801D0FCF7F5F908
:1047E0000CB010BD00040040E03D002410B58CB0BA
:1047F00024216846FBF71CFE154800244FF6FF7283
:10480000124B099401210A940B94C0E90034C0E9C9
:10481000024204618461CDE90014CDE902140494DC
:10482000CDE90541694607940894FEF793FD08B168
:10483000FCF7CBF9064809A909940B94FEF796FCFE
:10484000002801D0FCF7C1F90CB010BD00080040F1
:104850002C3E002410B58CB024216846FBF7E8FDFF
:10486000154800240121134B8A1E09940A940B94C5
:10487000C0E90034C0E9024204618461CDE900145A
:10488000CDE902140494CDE90541694607940894E2
:10489000FEF760FD08B1FCF798F9074809A90994EB
:1048A0000B94FEF763FC002801D0FCF78EF90CB0E6
:1048B00010BD0000000C0040783E00243EB50F48BB
:1048C000002409210C4BEF22009401940294C0E9CA
:1048D00002418461C0E90032FEF79AFC08B1FCF79E
:1048E00074F90648694600940294FEF73FFC0028DC
:1048F00001D0FCF76AF93EBD00100040C43E002420
:104900001848002110B5164C0C224FF4E133046016
:10491000C0E90131C160C0E904128161C161016275
:1049200041628162FFF79DF808B1FCF74EF90D482E
:104930000021FFF770F808B1FCF747F9094800219A
:10494000FFF743F808B1FCF740F90648FFF71DF8F8
:10495000002803D0BDE81040FCF737B910BD0000B7
:10496000004C00405C3F00241848002110B5164C54
:104970000C224FF4E1330460C0E90131C160C0E9A9
:1049800004128161C161016241628162FFF769F8CD
:1049900008B1FCF71AF90D480021FFF73CF808B1FF
:1049A000FCF713F909480021FFF70FF808B1FCF7ED
:1049B0000CF90648FEF7E9FF002803D0BDE81040D7
:1049C000FCF703B910BD000000100140F03F0024C7
:1049D0000D48092310B50B4C02220021046003711D
:1049E000C271817142728172C172017341738173AC
:1049F000C173FCF747FB002803D0BDE81040FCF76B
:104A0000E4B810BD0000084084400024FEE710B563
:104A10008188002204460068FCF718FAA189012267
:104A2000A068BDE81040FCF711BA10B581880122DA
:104A300004460068FCF70AFAA1890022A068BDE8D4
:104A40001040FCF703BA00001D4800B5416891ED25
:104A5000161A1C4991ED140A30EE410A03F0C4FB0A
:104A6000184AF0EE401A603292ED140A30EE410A14
:104A700003F0BAFBF4EEC01AF1EE10FA01DD426069
:104A800000E04160816891ED161A0E49C03191ED48
:104A9000140A30EE410A03F0A7FB0B4AF0EE401A6D
:104AA00092ED140A30EE410A03F09EFBF4EEC01AB8
:104AB000F1EE10FA01DD826000BD816000BD0000F2
:104AC00070000024143200243433002490ED170ABF
:104AD000007DBCEEC00A10EE101A89B200F02ABCAC
:104AE00010EE101A0C4A914202DD9FED0C0B01E012
:104AF000B7EEC00A0B4AB7EEC00B10EE101A914287
:104B000002D39FED090B01E0B7EEC00AB7EEC00B70
:104B100080ED160A70470000DDFC4645F853E3A51A
:104B20009BDFA840DDFC46C5F853E3A59BDFA8C08A
:104B3000B7EEC00A9FED041B20EE010BBDEEC00BCB
:104B4000B8EEC00AFFF7CCBF541CFF9D218B1C4060
:104B5000B0EE402A0E48F0EE612AB0EE413AB0EED7
:104B6000600A00B5FFF7E4FF0948B0EE620AC03002
:104B7000FFF7DEFF0648B0EE420A6038FFF7D8FFC5
:104B800003485DF804EB6030B0EE430AFFF7D0BF96
:104B900074320024017F0029816C01D14942816473
:104BA00000EE101ADFED0A0AC26CB8EEC02A9FEDC3
:104BB000091B1144C16482EE200A80ED140AB7EE8D
:104BC000C02A22EE010BB7EEC00B80ED150A70472C
:104BD0000BD7233C9DFE45FA02F0C13F094810B5B2
:104BE000FFF7D8FF0748C030FFF7D4FF054860380B
:104BF000FFF7D0FF03486030FFF7CCFFBDE810405F
:104C0000FFF722BF7432002410B590ED160A044657
:104C100003F0EAFAB0EE401A94ED140A03F0E4FA55
:104C2000F0EE410A04F1200000F042F8134880ED54
:104C3000000A84ED170A03F0D7FABCEEC00A20463A
:104C400084ED060AFFF742FF207F94ED160A28B193
:104C5000B5EEC00AF1EE10FA0ADC04E0B5EEC00AC7
:104C6000F1EE10FA04DD2046BDE81040FFF7CFBE9C
:104C70002046BDE81040FFF7D8BE000070000024B9
:104C8000084810B5FFF7C0FF0648C030FFF7BCFF6B
:104C900004486038FFF7B8FF0248BDE810406030B4
:104CA000FFF7B2BF74320024FDF7F4FBFEE700000B
:104CB00070EEC00A90ED071A90ED004AF0EE004A3F
:104CC00030EEC10AF0EE601A90ED013A41EE641A3E
:104CD00024EE000AD0ED083AD0ED022A90ED062A23
:104CE00003EE200A71EEA31A0E4A02EEA10A32EE7A
:104CF000000A10EE101A80ED060A914203DD9FEDC6
:104D00000A0A80ED060AB5EEC00AF1EE10FA03D2E7
:104D10009FED060A80ED060A80ED081AC0ED070A2D
:104D2000704700000080F9430080F9430000000054
:104D300030EEC00AD0ED071A90ED022A90ED091A64
:104D400070EE613AD0ED050AD0ED041A22EE232A66
:104D5000D0EC022AF1EE603A80ED070A02EE802ADA
:104D600003EE001AB1EE613A80FEC10A83FE800AAA
:104D700080ED090A72EE000A81FEE00A83FE000A55
:104D8000704700009FED040A80ED090A80ED070AD4
:104D900080ED080A70470000000000002DE9F04196
:104DA000984616460F460446069D08E0681C06D045
:104DB000FCF758F8A0EB0800A8420AD84DB12068CB
:104DC0008068384000D00120B042EFD10020BDE81B
:104DD000F081042084F84100606C40F001006064C0
:104DE0000120F4E72DE9F047454D044689464FF090
:104DF000000A2868C04380070AD0414E283E306828
:104E000020F080603060FCF72DF80746B04608E0DF
:104E10000120BDE8F08700BFFCF724F8C01B022882
:104E200067D8D8F800000001F6D4206829684FF44C
:104E3000FE0721F47C313E0241EA00302860207AEE
:104E4000A389B4F804C040022D4D2D495B1E227C7D
:104E5000ACF1010C1035091DA0F5007080B2521E96
:104E6000CCF3080C07EA034340EA0C00184306EAB7
:104E70000262104328600868626920F0C000104395
:104E800008600A68A06922F0200202430A60281D17
:104E90000A6822F010020A6002684FF6F873E469AB
:104EA0009A4342EAC40202600868B9F1000F40F078
:104EB00010020A6011D00868B9F1010F11D040F456
:104EC00000100860D8F80000444640F08060C8F840
:104ED0000000FBF7C7FF05460DE0086840F400201E
:104EE000EFE740F48010ECE7FBF7BCFF401B022823
:104EF00001D903208DE720680001F5D5504688E7E9
:104F0000284402582DE9F047454D044689464FF0A4
:104F1000000A2868C04380070AD0414E283E306806
:104F200020F080503060FBF79DFF0746B04608E058
:104F30000120BDE8F08700BFFBF794FFC01B0228EB
:104F400067D8D8F800008000F6D4208829684FF48C
:104F5000FE0721F07C713E0241EA00502860207A71
:104F6000A389B4F804C040022D4D2D495B1E227C5C
:104F7000ACF1010C1835091DA0F5007080B2521E6D
:104F8000CCF3080C07EA034340EA0C00184306EA96
:104F90000262104328600868626920F44060104390
:104FA00008600A68A06922F4007202430A60281DA2
:104FB0000A6822F480720A6002684FF6F873E469A6
:104FC0009A4342EAC40202600868B9F1000F40F453
:104FD00080720A6011D00868B9F1010F11D040F059
:104FE00080700860D8F80000444640F08050C8F84F
:104FF0000000FBF737FF05460DE0086840F480002D
:10500000EFE740F40000ECE7FBF72CFF401B022821
:1050100001D903208DE720688000F5D5504688E748
:105020002844025801B582B04FF47A7001230090F1
:1050300001AA034802A9FDF783FE9DF804000EBDF6
:10504000C03C002410B5026840F26F335169946986
:1050500044F0080494610268946944F01004946177
:105060000268146824F001041460026814699C4307
:1050700014610268936823F44043936090F88120A0
:10508000042A0CD08A060AD5D0F8842042F0800287
:10509000C0F884200268936943F02003936190F87C
:1050A0008120032A0CD04A060AD5D0F8842042F089
:1050B0000402C0F884200268936943F040039361BE
:1050C0008A050AD5D0F8842042F00102C0F8842075
:1050D0000268936943F400739361C9050AD5D0F857
:1050E000841041F00801C0F8841001688A6942F414
:1050F00080728A610021A0F86210A0F86A1010BDC9
:105100002DE9F0411C4616460D460746DDF818808D
:105110000AE000BFFBF7A6FEA0EB0800A04202D306
:10512000601C01D00BE054B13868406935EA0000DA
:1051300007D00020B042EDD00020BDE8F081032070
:10514000FBE70120F6E7000010EE100A1C49884238
:1051500002DD9FED1C1B01E0B7EEC01A1B49B7EE44
:10516000C10B10EE100A884202D99FED191B01E015
:10517000B7EEC01A10EE900A174A9FED180A904237
:10518000174930FE200A10EE100AB7EEC11B884204
:1051900001D99FED140A1448B5EEC01A80ED021A29
:1051A000F1EE10FA80ED030A06D1B5EEC00AF1EE79
:1051B00010FA01D1012100E00021017570470000C3
:1051C000A115DF4300000020B4E27B40A115DFC33E
:1051D00000000020B4E27BC00000F0420000F0427A
:1051E0000000F0C20000F0C22401002410B5F5EE6A
:1051F000C00A4B4C2DED028BB0EE418AF1EE10FA55
:10520000F6EE008A0CD1B5EEC00AF1EE10FA07D026
:10521000B5EEC08AF1EE10FA02D10220207039E01A
:10522000F5EEC00AF0EEE01AF1EE10FA4DD0B5EE50
:10523000C00AF1EE10FA48D0B5EEC08AF1EE10FACD
:1052400043D120EE001AF5EEC00A4FF003002070A3
:10525000F1EE10FAF0EE002A01EEA11A61EEA21AA8
:10526000F7EE000ABFEE002A30FE822A84ED192AEA
:10527000C1EE210AC4ED1A0A80EE201AB7EEC10A67
:1052800001F0C2F994ED1A1AB7EEC11A20EE010B23
:10529000B7EEC00B84ED010A02F012FB94ED010A97
:1052A0000020F0EEC00A60EEA80AC4ED1C0A02F06D
:1052B00046F984ED010A002094ED1C0A02F03FF942
:1052C00084ED1C0ABDEC028B10BDB5EEC00AF1EEF8
:1052D00010FA21D1B5EEC08AF1EE10FA1CD00420EC
:1052E000207084ED0D8AC4ED1D1A02F0E9FAB0EECB
:1052F000C80A012020EE280A84ED200A94ED0D0A48
:1053000002F01DF984ED0D0A012094ED200A02F04F
:1053100016F984ED200AD5E701202070D2E70000BD
:105320006401002480EC030A70470C3080EC030A0F
:1053300070470000074A38B1012807D0022807D07B
:10534000032800D1D1807047118070475180704789
:10535000918070477E00002410B5FBF789FD04F0B2
:10536000C9FD012803D0BDE8104004F08FBA10BD7C
:10537000F0B59DB04C216846FBF75AF8202113A8E0
:10538000FBF756F80220FBF72BFF224800242249A6
:10539000026842F44042026002680A6842F0010278
:1053A0000A60096801F001011B9101688904FCD5BC
:1053B0000DF1280C02200990012306930526C02731
:1053C0008CE8C100C2030F9008250D9021210E909A
:1053D000CDE91054CDE9001268461294FDF76AF841
:1053E00008B172B6FEE740201A903F210301CDE9D3
:1053F00016500322CDE9180313AB13A883E8160057
:105400000421FCF72FFE08B172B6FEE7FCF758FF47
:105410001DB0F0BD184802582C0400583348F0B5B0
:10542000334A016841F470010160106800F00F0018
:10543000072804D2106820F00F00C01D10602D490D
:1054400000202C4C10340B682B4D43F001030B60F3
:1054500020600B682B400B60136803F00F03072BD1
:1054600004D9136823F00F03DB1D1360214C234A7A
:105470001834234B261D371D20601E4C214D283427
:105480003060261D3860371D23603B1D35601C1DB4
:105490003A60251D2E1D1860331D22602860326081
:1054A00018600A68134B184C22F4802260330A609B
:1054B000186020686FF30F00B0F1005F03D213494A
:1054C0000120C1F808010B48D4300168C9040BD48D
:1054D000026843F2D2010E4B42F48052026019601E
:1054E000016821F480510160F0BD000088ED00E00A
:1054F00000200052004402587FEDF6EA80020101CC
:10550000000202020000FF010010005C0080005158
:105510000040005270B5214C2088401E0004000C51
:10552000208002D14FF4FA7020801D48FEF76AF8FF
:105530001C4821881C4D0088814201D2012200E0D4
:10554000002228460121FBF781FC18484FF48061B6
:1055500022880088824201D2012200E000222846EF
:10556000FBF774FC12482288018812488A4201D253
:10557000012200E000220421FBF768FC0E484FF4F2
:105580008041228803880D489A4201D2012200E01E
:105590000022BDE87040FBF759BC00007C000024ED
:1055A000C43E00247E000024000402588000002431
:1055B000820000240000025884000024000C0258DD
:1055C0002DE9F047294B4FF0804A294D0268984257
:1055D000284E294F294C09D0504507D0A84205D064
:1055E000B04203D0B84201D0A04205D1D1F804C0E6
:1055F00022F070024CEA0202DFF884C0DFF88480F7
:105600009842DFF884900FD050450DD0A8420BD0BF
:10561000B04209D0B84207D0A04205D0604503D0BF
:10562000404501D0484503D1CD6822F440722A4359
:105630008E684D6922F08002C6620E682A43984245
:10564000866207D0A04205D0604503D0404501D016
:10565000484501D1096901630368012143F004034E
:10566000036041610260BDE8F08700000000014076
:105670000004004000080040000C0040000401400D
:1056800000400140004401400048014010B5046A58
:10569000012301F01F018B409C4304628A40016A90
:1056A0001143016210BD00002DE9F04FDFF8848046
:1056B000214EDFF88890DFF888B0026A036AB042B2
:1056C000DFF880A022F0020C1F4F23F001020262DB
:1056D000426885698B680C6805EA080525F00305B2
:1056E00043EA0C0344EA050407D0484505D0584571
:1056F00003D0504501D0B84205D1CD6823F008034E
:105700001D4325F00403B04207D0484505D0584555
:1057100003D0504501D0B84205D122F44076D1E9FA
:10572000055235432A4342608461496841630362FC
:10573000BDE8F08F8FFFFEFF000001400004014034
:10574000004001400044014000480140F0B5DFF84E
:105750007CE01F4C1F4D026A036AA04222F0200623
:1057600023F01003036242688369D1F808C00F6810
:1057700003EA0E0323F4407E46EA0C134EEA0726A2
:1057800001D0A84206D1CF6823F0800343EA071373
:1057900023F04003A0420AD0A84208D00E4CA042F9
:1057A00005D00E4CA04202D00D4CA04207D1D1E949
:1057B000054522F4406242EA840242EA85024260E0
:1057C0008661496881630362F0BD0000FF8FFFFEC0
:1057D000000001400004014000400140004401403D
:1057E00000480140F0B5DFF87CE01F4D1F4E026A13
:1057F000036AA84222F4007723F4807303624368AB
:10580000C269D1F808C002EA0E020C6822F0030E49
:1058100047EA0C2244EA0E0401D0B04206D1CF6818
:1058200022F4006242EA072222F48062A8420AD0EF
:10583000B04208D00E4DA84205D00E4DA84202D06D
:105840000D4DA84207D1D1E9055623F4405343EA50
:10585000051343EA06134360C4614968C1630262E9
:10586000F0BD00008FFFFEFF00000140000401407A
:10587000004001400044014000480140F0B5046A86
:10588000026A22F4805202624268C36924F400541E
:10589000DFF848C08E680D6803EA0C03104F23F44C
:1058A000407344EA0634B84243EA05230BD00D4D59
:1058B000A84208D00C4DA84205D00C4DA84202D0F9
:1058C0000B4DA84204D14D6922F4804242EA851270
:1058D0004260C361496801640462F0BDFF8FFFFE4E
:1058E000000001400004014000400140004401402C
:1058F00000480140F0B5164F164B026A046A984200
:1059000022F4003524F4803303624268436D0E892B
:105910000C6803EA070344EA030445EA06430BD094
:105920000D4DA84208D00D4DA84205D00C4DA842FF
:1059300002D00C4DA84204D14D6922F4803242EAD3
:10594000052242604465496881650362F0BD00003C
:105950008FFFFEFF000001400004014000400140B5
:105960000044014000480140F0B5164F164B026A52
:10597000046A984224F48013036222F400144268FB
:10598000436D0E890D6803EA070344EA065443EAAF
:1059900005230BD00D4DA84208D00D4DA84205D0CF
:1059A0000C4DA84202D00C4DA84204D14D6922F4FE
:1059B000802242EA8522426043654968C1650462EB
:1059C000F0BD0000FF8FFFFE000001400004014019
:1059D0000040014000440140004801402DED028B91
:1059E00082B004F095FA0C4C0C4D9FED0D8A00909E
:1059F0000521684603F042FD0A48FEF765FB0A48A8
:105A0000FEF774FA2068F0EE480A401C206095ED1D
:105A1000010AFAF7CDFFEBE704000024240100247B
:105A20000AD7A33B08020024EC0100244FF47A704B
:105A300010B502F0E2FB9FED0B0A01F0C3FF0A4C28
:105A400002E00A2002F0D9FB94F884000028F8D084
:105A50009FED060A01F0B6FFBDE81040002003F0FC
:105A600053BD0000000096436401002400000000C4
:105A7000002003F049BD012002F0BFFBFBE701203D
:105A800002F0BBFBFBE7000008B504F041FA0B4C49
:105A9000012500900A21684603F0F0FC00F03CF874
:105AA0002570FFF79BF8FAF73DFFFAF7B3FFFBF716
:105AB00033F8FAF75BFFFFF7E3F8EBE708000024A1
:105AC000094D4FF0FF3408B522466946686A04F074
:105AD000DFF828B19DF80000312801D102F0E8FA82
